:100000000C9456000C9460000C9460000C946000FA
:100010000C9460000C9460000C9460000C946000E0
:100020000C9460000C9462000C9460000C946000CE
:100030000C9460000C9460000C9460000C946000C0
:100040000C9460000C9460000C9460000C946000B0
:100050000C9460000C9460000C9460000C946000A0
:100060000C9460000C9460000C9460000C94600090
:100070000C9460000C9460000C9460000C94600080
:100080000C9460000C9460000C9460000C94600070
:100090000C9460000C9460000C9460000C94600060
:1000A0000C9460000C9460000C94600011241FBE3E
:1000B000CFEFDAE0DEBFCDBF0E9483000C949F003B
:1000C0000C9400001F920F920FB60F9211248F9381
:1000D000AF93BF93EF93FF93DF93CF93CDB7DEB78B
:1000E000ABE2B0E0EBE2F0E0808180958C93CF91C1
:1000F000DF91FF91EF91BF91AF918F910F900FBE64
:100100000F901F901895DF93CF93CDB7DEB7E8E639
:10011000F0E081E08083EBE6F0E081E08083AAE21A
:10012000B0E0EAE2F0E0808180688C93ABE2B0E07E
:10013000EBE2F0E0808180688C937894FFCFF894B4
:02014000FFCFEF
:00000001FF
