:100000000C9456000C9468000C9468000C946800E2
:100010000C9468000C9468000C9468000C946800C0
:100020000C9468000C9468000C9468000C946800B0
:100030000C9468000C9468000C9468000C946800A0
:100040000C9468000C9468000C9468000C94680090
:100050000C9468000C9468000C9468000C94680080
:100060000C9468000C9468000C9468000C94680070
:100070000C9468000C9468000C9468000C946A005E
:100080000C9468000C9468000C9468000C94680050
:100090000C9468000C9468000C9468000C94680040
:1000A0000C9468000C9468000C94680011241FBE26
:1000B000CFEFDAE0DEBFCDBF11E0A0E0B1E001C0DC
:1000C0001D92A230B107E1F70E94B8000C94E40041
:1000D0000C9400001F920F920FB60F9211248F9371
:1000E000EF93FF93DF93CF9300D0CDB7DEB7E7E96F
:1000F000F0E080818983E6E9F0E080818A83809165
:1001000000018F3F21F48FEF89838FEF8A83E5E22F
:10011000F0E08FEF8083109201010F900F90CF914C
:10012000DF91FF91EF918F910F900FBE0F901F9075
:1001300018951F920F920FB60F9211248F93EF9381
:10014000FF93DF93CF93CDB7DEB78FEF809300019E
:1001500010920101E5E2F0E08FEF8083CF91DF9113
:10016000FF91EF918F910F900FBE0F901F901895F8
:10017000DF93CF930F92CDB7DEB7E7E2F0E01082C6
:10018000E8E2F0E080E88083E4E2F0E08FEF808353
:10019000EAE2F0E08FEF8083E5E2F0E08FEF80832A
:1001A000E1E6F0E080E88083E1E6F0E01082E1E95A
:1001B000F0E081E48083E1E7F0E081E280837894FD
:0C01C000E6E2F0E08081FCCFF894FFCF75
:00000001FF
