:100000000C9456000C9468000C9468000C946800E2
:100010000C9468000C9468000C9468000C946800C0
:100020000C9468000C9468000C9468000C946800B0
:100030000C9468000C9468000C9468000C946800A0
:100040000C9468000C9487000C94A1000C94680038
:100050000C9468000C946A000C9468000C9468007E
:100060000C9468000C9468000C9468000C94680070
:100070000C9468000C9468000C9468000C94680060
:100080000C9468000C9468000C9468000C94680050
:100090000C9468000C9468000C9468000C94680040
:1000A0000C9468000C9468000C94680011241FBE26
:1000B000CFEFDAE0DEBFCDBF11E0A0E0B1E001C0DC
:1000C0001D92A230B107E1F70E94B8000C94130111
:1000D0000C9400001F920F920FB60F9211248F9371
:1000E0009F93DF93CF93CDB7DEB7809100019091BE
:1000F000010101969093010180930001CF91DF915E
:100100009F918F910F900FBE0F901F9018951F9287
:100110000F920FB60F9211248F93EF93FF93DF93FB
:10012000CF93CDB7DEB7E5E2F0E08FEF8083CF91DC
:10013000DF91FF91EF918F910F900FBE0F901F9065
:1001400018951F920F920FB60F921124EF93FF9301
:10015000DF93CF93CDB7DEB7E5E2F0E01082CF9129
:10016000DF91FF91EF910F900FBE0F901F901895A8
:10017000DF93CF9300D0CDB7DEB7E4E2F0E08FEFAE
:100180008083E5E2F0E08FEF8083E1E6F0E080E855
:100190008083E1E6F0E01082E4E4F0E082E0808336
:1001A000E5E4F0E089E08083E7E4F0E08AEF808333
:1001B000EEE6F0E082E08083E8E8F0E088EE93E0AD
:1001C00091838083EFE6F0E086E08083E1E8F0E071
:1001D00089E08083E6E4F0E01082E4E8F0E0118258
:1001E000108278941A821982809100019091010105
:1001F0008837910578F089819A8101969A8389835D
:100200001092010110920001EAE8F0E089819A81E0
:100210009183808389819A8123E0883E920720F32D
:0A0220001A821982E1CFF894FFCF93
:00000001FF
