:100000000C9456000C9468000C9468000C946800E2
:100010000C9468000C9468000C9468000C946800C0
:100020000C9468000C9468000C9468000C946800B0
:100030000C9468000C9468000C9468000C946800A0
:100040000C9468000C9468000C9468000C94680090
:100050000C9468000C9468000C9468000C946A007E
:100060000C9468000C9468000C9468000C94680070
:100070000C9468000C947F000C9468000C94680049
:100080000C9468000C9468000C9468000C94680050
:100090000C9468000C9468000C9468000C94680040
:1000A0000C9468000C9468000C94680011241FBE26
:1000B000CFEFDAE0DEBFCDBF11E0A0E0B1E001C0DC
:1000C0001D92A430B107E1F70E940A010C94B1021D
:1000D0000C9400001F920F920FB60F9211248F9371
:1000E000DF93CF93CDB7DEB78FEF80930101CF9130
:1000F000DF918F910F900FBE0F901F9018951F9258
:100100000F920FB60F9211248F93DF93CF93CDB739
:10011000DEB78FEF80930001CF91DF918F910F9029
:100120000FBE0F901F901895DF93CF93CDB7DEB71A
:10013000CF91DF910895DF93CF93CDB7DEB7CF9105
:10014000DF910895DF93CF93CDB7DEB7CF91DF91E5
:100150000895DF93CF930F92CDB7DEB78983ECE795
:10016000F0E01082ACE7B0E0ECE7F0E080818F7364
:100170008C93ACE7B0E0ECE7F0E080818F7D8C936E
:10018000ABE7B0E0EBE7F0E080818F7D8C93ACE7EC
:10019000B0E0ECE7F0E08081817E8C93ACE7B0E0EA
:1001A000ECE7F0E090818981892B8C93AAE7B0E09D
:1001B000EAE7F0E080818F698C93AAE7B0E0EAE794
:1001C000F0E0808180648C930F90CF91DF9108954F
:1001D000DF93CF9300D0CDB7DEB71A821982E8E75C
:1001E000F0E080818A83E9E7F0E08081898389817A
:1001F000882F90E0382F22278A81882F90E0822B49
:10020000932B90930301809302010F900F90CF9155
:10021000DF910895DF93CF93CDB7DEB727970FB661
:10022000F894DEBF0FBECDBFE1E6F0E080E880834A
:10023000E1E6F0E01082A5E5B0E0E5E5F0E08081E0
:1002400080688C93A5E5B0E0E5E5F0E0808180680A
:100250008C93E4E4F0E01082E5E4F0E084E0808355
:10026000EEE6F0E081E08083E4E2F0E08FEF80836F
:10027000E5E2F0E08FE18083EAE2F0E08FEF808357
:10028000EBE2F0E01082A0ECB0E0E0ECF0E0808186
:1002900081608C93A2ECB0E0E2ECF0E080818160C0
:1002A0008C93A3ECB0E0E3ECF0E080818D7F8C9345
:1002B000A3ECB0E0E3ECF0E080818E7F8C93A0ECC7
:1002C000B0E0E0ECF0E080818F7E8C93A0ECB0E0B9
:1002D000E0ECF0E0808180628C93A2ECB0E0E2EC94
:1002E000F0E080818B7F8C93A2ECB0E0E2ECF0E058
:1002F000808188608C93EFEBF0E083E08083E1ED18
:10030000F0E088EE8083EFEBF0E01082E0EDF0E0CB
:100310008EE58083E2EDF0E08EE58083A1ECB0E035
:10032000E1ECF0E0808188608C93A1ECB0E0E1EC3E
:10033000F0E080818B7F8C93A1ECB0E0E1ECF0E009
:1003400080818D7F8C93A1ECB0E0E1ECF0E08081C6
:1003500081608C9378941F8288EE93E090930301E0
:10036000809302011E821D828EE58C831B821A827D
:10037000E0EDF0E08EE58083E2EDF0E08EE5808355
:100380001982809101018F3F29F4109201018F8120
:100390008F5F8F838F818F3F31F480E00E94A900AF
:1003A0001F828FEF8B83809100018F3F21F4109289
:1003B00000010E94E800809102019091030123E076
:1003C0008A36920728F0E5E2F0E08FE1808398C05A
:1003D000809102019091030122E0873F9207D8F1BA
:1003E000809102019091030123E08A36920798F5EB
:1003F0008981813041F4E5E2F0E081E28083898106
:100400008F5F89837DC08981823041F4E5E2F0E02D
:1004100082E2808389818F5F898372C08981833082
:1004200041F4E5E2F0E084E2808389818F5F898393
:1004300067C08981843041F4E5E2F0E088E280839E
:1004400089818F5F89835CC0E5E2F0E08FE2808381
:1004500081E0898355C0809102019091030122E0DF
:10046000873F920708F04CC081E08E83E5E2F0E020
:100470001082E5E2F0E080E28083E0EDF0E08EE5DE
:100480008083E2EDF0E08EE58083EFEBF0E0108218
:100490000E94940030C0809101018F3F31F410928E
:1004A00001018D818F5F8D8326C08D8188238CF41F
:1004B000E5E2F0E08081803221F4E5E2F0E01082B4
:1004C00004C0E5E2F0E080E2808380E00E94A900C1
:1004D00012C0809100018F3F29F4109200010E9408
:1004E000E80009C0809102019091030123E08A365F
:1004F000920708F01E828E81813069F20E949B0073
:100500000E94A2008B818F3F09F03BCF1B828A8122
:100510008F3F49F48C818D3710F01A8213C08C8183
:100520008F5F8C830FC08A81882351F48C818F3335
:1005300018F48FEF8A8306C08C8181508C8302C0AF
:100540008FEF8A83EFEBF0E01082E0EDF0E08C813A
:100550008083EFEBF0E01082E2EDF0E08C818083AD
:0605600010CFF894FFCF5C
:00000001FF
