:100000000C9456000C9468000C9468000C946800E2
:100010000C9468000C9468000C9468000C946800C0
:100020000C9468000C9468000C9468000C946800B0
:100030000C9468000C9468000C9468000C946800A0
:100040000C9468000C9468000C9468000C94680090
:100050000C9468000C9468000C9468000C946A007E
:100060000C9468000C9468000C9468000C94680070
:100070000C9468000C9468000C9468000C94680060
:100080000C9468000C9468000C9468000C94680050
:100090000C9468000C9468000C9468000C94680040
:1000A0000C9468000C9468000C94680011241FBE26
:1000B000CFEFDAE0DEBFCDBF11E0A0E0B1E001C0DC
:1000C0001D92A230B107E1F70E9487000C94B400A2
:1000D0000C9400001F920F920FB60F9211248F9371
:1000E0009F93DF93CF93CDB7DEB7809100019091BE
:1000F000010101969093010180930001CF91DF915E
:100100009F918F910F900FBE0F901F901895DF93C6
:10011000CF93CDB7DEB7E1E6F0E080E88083E1E69B
:10012000F0E01082EEE6F0E081E08083E5E4F0E0CC
:1001300081E08083E4E2F0E081E080837894809144
:100140000001909101012AE783319207C0F3A5E2F3
:10015000B0E0E5E2F0E0908181E089278C93109295
:0C016000010110920001EBCFF894FFCFDA
:00000001FF
