:100000000C9456000C9460000C9460000C946000FA
:100010000C9460000C9460000C9460000C946000E0
:100020000C9460000C9460000C9460000C946000D0
:100030000C9460000C9460000C9460000C946000C0
:100040000C9460000C9462000C9460000C946000AE
:100050000C9460000C9460000C9460000C946000A0
:100060000C9460000C9460000C9460000C94600090
:100070000C9460000C9460000C9460000C94600080
:100080000C9460000C9460000C9460000C94600070
:100090000C9460000C9460000C9460000C94600060
:1000A0000C9460000C9460000C94600011241FBE3E
:1000B000CFEFDAE0DEBFCDBF0E9483000C94B50025
:1000C0000C9400001F920F920FB60F9211248F9381
:1000D000AF93BF93EF93FF93DF93CF93CDB7DEB78B
:1000E000A5E2B0E0E5E2F0E0808180958C93CF91CD
:1000F000DF91FF91EF91BF91AF918F910F900FBE64
:100100000F901F901895DF93CF93CDB7DEB7E1E640
:10011000F0E080E88083E1E6F0E01082E4E2F0E0E5
:100120008FEF8083E5E2F0E01082A1E8B0E0E1E843
:10013000F0E0808180618C93A1E8B0E0E1E8F0E03C
:10014000808182608C93EFE6F0E082E08083789497
:10015000E6E8F0E088EE93E091838083E8E8F0E061
:0E01600084E690E091838083FFCFF894FFCF78
:00000001FF
