:100000000C9456000C9468000C9468000C946800E2
:100010000C9468000C9468000C9468000C946800C0
:100020000C9468000C9468000C9468000C946800B0
:100030000C9468000C9468000C9468000C946800A0
:100040000C9468000C9468000C9468000C94680090
:100050000C9468000C9468000C9468000C94680080
:100060000C9468000C9468000C9468000C94680070
:100070000C9468000C9468000C9468000C94680060
:100080000C9468000C9468000C9468000C94680050
:100090000C9468000C9468000C9468000C94680040
:1000A0000C9468000C9468000C94680011241FBE26
:1000B000CFEFDAE0DEBFCDBF11E0A0E0B1E001C0DC
:1000C0001D92A130B107E1F70E946A000C949800DC
:1000D0000C940000DF93CF93CDB7DEB7E5E4F0E0FA
:1000E00086E08083E4E2F0E08FEF8083E5E2F0E0F9
:1000F0008FEF8083E6E4F0E08081883020F0E6E452
:10010000F0E01082F7CFE6E4F0E080818093000118
:10011000809100018295880F807E80930001E5E246
:10012000F0E0809100018295869587708083E2CF10
:04013000F894FFCF71
:00000001FF
